:020000040800F2
:10000000A0080020050100081B16000801110008C7
:10001000191600089501000883160008000000006A
:100020000000000000000000000000001F16000893
:1000300097010008000000001D16000821160008A6
:100040001F0100081F0100081F0100081F01000810
:100050001F0100081F0100081F0100081F01000800
:100060001F0100081F0100081F0100081F010008F0
:100070001F0100081F0100081F0100081F010008E0
:100080001F0100081F0100081F0100081F010008D0
:100090001F0100081F0100081F0100081F010008C0
:1000A0001F0100081F0100081F0100081F010008B0
:1000B0001F0100081F0100081F0100081F010008A0
:1000C0001F0100081F0100081F0100081F01000890
:1000D0001F0100081F0100081F0100081F01000880
:1000E0001F0100081F0100081F010008DFF810D0E1
:1000F00000F03EF80048004719180008AFF30080F0
:10010000A00800200648804706480047FEE7FEE7B3
:10011000FEE7FEE7FEE7FEE7FEE7FEE7FEE7FEE7B7
:1001200081160008ED00000840EA01039B0703D098
:1001300009E008C9121F08C0042AFAD203E011F826
:10014000013B00F8013B521EF9D27047D2B201E0E8
:1001500000F8012B491EFBD270470022F6E710B5CC
:1001600013460A4604461946FFF7F0FF204610BD25
:10017000064C074D06E0E06840F0010394E80700F4
:1001800098471034AC42F6D3FFF7B4FF9C18000830
:10019000BC180008FEE7704772B6FEE770B504466B
:1001A00000F004F90546601C02D0044800780444BD
:1001B00000F0FCF8401BA042FAD370BD14000020F0
:1001C0002DE9F84FDFF8B891002409F1040A0AF18B
:1001D000040B23460F270BF1040EC9E00125A540AF
:1001E0002A40AA427DD1674ED1F804C0ACEB060884
:1001F000B44532D014DCBCF1030F3AD009DCBCF1B9
:10020000000F2AD0BCF1010F1CD0BCF1020F31D17C
:100210001DE0BCF1110F17D0BCF1120F2AD119E06B
:10022000B8F5881F19D006DCB8F5803F15D0B8F5B1
:10023000801F1FD111E0B8F5001F0ED0B8F5041FC4
:1002400018D10AE0CB6815E0CB681B1D12E0CB6823
:1002500008330FE0CB680C330CE08B682BB1012B1B
:100260004FF0080303D0456104E0042302E0056178
:1002700000E00023FF2A01D8064601E000F1040651
:100280004FEA840501D9A5F12005D6F8008007FAC8
:1002900005FC28EA0C0803FA05F548EA0508C6F843
:1002A00000804D68ED0062D5374DAE6946F001061D
:1002B000AE61AD6924F0030605F001050095334DEC
:1002C00006EB050CDCF80850A607360F07FA06F80F
:1002D00025EA0805DFF8B880404503D14FF0000853
:1002E00017E044E0DFF8AC80404502D14FF0010850
:1002F0000FE0DFF8A480404502D14FF0020808E08B
:10030000DFF89880404502D14FF0030801E04FF03C
:10031000040808FA06F848EA0508CCF808804D6891
:10032000D9F80060ED034D4601D5164300E0964331
:100330002E604D68DAF80060AD03554601D51643CE
:1003400000E096432E604D68DBF80060ED025D46EC
:1003500001D5164300E096432E604D68DEF800603C
:10036000AD02754601D5164300E096432E60641C2D
:100370000D682A46E5407FF431AFBDE8F88F0000F4
:100380000004014000001110001002400000014074
:1003900000080140000C0140001001400014014021
:1003A0000AB1016170470904FBE700000148806859
:1003B000704700001400002070B5040025D094F8A8
:1003C0003D00002520B984F83C50204600F02EFB6B
:1003D000242084F83D002068016821F001010160BB
:1003E0002068016841F4004101602068016821F43F
:1003F0000041016000F09AFC4D4A6168914201D8C9
:100400004C4900E04C49884201D2012070BD4B4963
:100410002368B0FBF1F15E6826F03F060E435E6094
:100420006368934206D94FF4967359434FF47A7335
:10043000B1FBF3F12368491C1E6A26F03F063143E5
:1004400019626168914210D84900401EB0FBF1F278
:10045000521CC2F30B02042A01D2042022E0B0FB9A
:10046000F1F0401CC0F30B001CE0A268F2B301EBFA
:10047000C10303EB0116431EB3FBF6F35B1C43F40D
:1004800080431B0549D092B301EBC10202EB01117D
:10049000401EB0FBF1F0401CC0F30B0040F4804064
:1004A00040F400402168CA694CF6FF739A43104338
:1004B000C861D4E9071001432068026822F0C00235
:1004C00011430160D4E9030101432068826848F2C6
:1004D000FF339A4311438160D4E905010843216841
:1004E000CA6822F0FF021043C86001E00EE016E087
:1004F0002068016841F0010101602564202084F832
:100500003D00256384F83E50002070BD01EB41069C
:10051000431EB3FBF6F35B1CB3E70120C2E701EB1C
:100520004101401EB0FBF1F0401CC0F30B00B7E7E7
:10053000A086010080841E0000093D0040420F009B
:100540002DE9FF4F81B089460446FFF72FFF05468E
:1005500094F83D004FF0010820287DD11923012295
:1005600050492046009500F0DBFE002874D194F835
:100570003C00012870D0012084F83C00206801680C
:10058000C90703D1016841F00101016020680168D9
:1005900021F400610160242084F83D0000262664D7
:1005A0004148E0624FF0011B20272068016841F4B8
:1005B000807101600095002259462046049B00F09E
:1005C000AFFE50B120680068C00502D54FF400703E
:1005D0002064032005B0BDE8F08F216809F0FE001B
:1005E0000861FFF7E3FE2168054648694969C0F3E1
:1005F0004000C1F380214FF0A00A0FE0FFF7D6FEC4
:10060000411B0498814200D808B984F83DA02168B4
:1006100048694969C0F34000C1F3802194F83D2046
:10062000A02A02D008B90029E8D084F83D702068DB
:100630004169C943890716D4016841F4007101601A
:1006400020684169806919230122164920460095D6
:1006500000F066FEB8B900E021E084F83D7084F84F
:100660003C600020B6E7016841F400710160216838
:100670006FF480604861192301220A4920460095E1
:1006800000F04EFE08B10120A4E7039808F101082C
:1006900080458AD384F83D7084F83C60F3E70220FB
:1006A00098E70000020010000000FFFF2DE9FF4F57
:1006B00083B00025DDE910799A4693460446DDF8BB
:1006C00048800095FFF772FE064694F83D0020280A
:1006D0007CD11923012285492046009600F020FE96
:1006E0000028F5D194F83C0001286FD0012084F84F
:1006F0003C0020680168C90703D1016841F001018D
:1007000001602068016821F400610160222084F802
:100710003D00402084F83E0025646762A4F82A90DA
:10072000608D20857248E062CDE9008653465A46C6
:100730002046049900F0FCFC00287DD1208DDFF8D4
:10074000B491202768B1012814D0022820680168DC
:100750001ED041F480610160206841698069009089
:10076000B6E02068416981690091016841F4007137
:100770000160ADE02068016821F48061016072B61B
:100780002068416981690091016841F400710AE0C3
:1007900041F40061016072B620684169816900918D
:1007A000016821F48061016062B691E0032868D895
:1007B00001280CD0022843464FF00002494620464B
:1007C00000960FD000F0ACFDB0BB10E08BE03246DD
:1007D0004146204600F023FE70BB20680069616A34
:1007E00008706CE000F09CFD30BB72B634E020680D
:1007F000016821F48061016072B620680069616A55
:100800000870606A401C6062208D401E2085608DEB
:10081000401E6085384846F2A8110068B0FBF1F030
:10082000C0EBC00000EB80000090401E009008D09C
:1008300020684069C04300E029E040070CD50098DB
:10084000F3E744F8305F6773A573206940F0200038
:10085000206162B625731AE02068016841F40071D6
:10086000016020680069616A0870606A401C60620B
:10087000218D491E2185618D491E618562B62168E1
:100880001BE032464146204600F0C9FD18B1012068
:1008900007B0BDE8F08F20680069616A0870606A7F
:1008A000401C6062218D491E2185618D491E618534
:1008B00021684A69D24352070AD409690170606A03
:1008C000401C6062208D401E2085608D401E60852A
:1008D000208D00287FF46AAF84F83D7084F83E5084
:1008E00084F83C50D4E70220D2E700000200100058
:1008F0000000FFFF04000100200000202DE9FF4F51
:1009000083B09A46DDE9119793460446DDF84080AE
:10091000FFF74CFD054694F83D0020287FD11923B0
:10092000012240492046009500F0FAFC002876D1CB
:1009300094F83C00012872D0012084F83C00206823
:100940000168C90703D1016841F001010160206815
:10095000016821F400610160212084F83D004020FD
:1009600084F83E0000262664C4F82480A4F82A9067
:10097000608D20852C48E062CDE9007553465A46CB
:100980002046049900F052FC70B930E02A463946FE
:10099000204600F077FD58B1206C042804D120686F
:1009A000016841F400710160012007B0BDE8F08FDB
:1009B000606A216800780861606A401C6062218D6D
:1009C000491E89B22185628D521E62852268536953
:1009D000DB435B070BD469B100781061606A401C8F
:1009E0006062208D401E2085608D401E6085208DB8
:1009F0000028CBD12A463946204600F06BFC00285F
:100A0000CAD154F83D0B016841F400710160202007
:100A100004F81E09E67766770020C6E7FFE70220A4
:100A2000C3E70000020010000000FFFF10B586B011
:100A300000210091019102910391006810498842C0
:100A40001BD1104CA06940F00800A061A069694664
:100A500000F0080004904FF44060009012200190D4
:100A6000032003900848FFF7ABFBE06940F48000E7
:100A7000E061E06900F48000049006B010BD000061
:100A80000058004000100240000C014070B5040006
:100A900011D021684CF6CC400860216845F25550D1
:100AA0000860D4E9000141602168A0688860FFF710
:100AB0007DFC054609E0012070BD00BFFFF776FC14
:100AC000401B262801D9032070BD2068C06800287B
:100AD000F4D121684AF6AA200860002070BD0068A1
:100AE0004AF6AA2101600020704700000248816890
:100AF000027811448160704714000020074810B547
:100B0000016841F010010160032000F067F8002047
:100B100000F006F800F024F8002010BD002002408C
:100B200070B50D4D04464FF47A712878B1FBF0F0A2
:100B30000A490968B1FBF0F000F0CEFA48B9102C70
:100B400007D200222146501E00F028F800206C60D9
:100B500070BD012070BD00001400002020000020A6
:100B60000C4808B5816941F001018161816901F09A
:100B700001010091C16941F08051C161C06900F07B
:100B8000805000900448416821F0E06141F000711C
:100B9000416008BD0010024000000140F0B40E4B5F
:100BA0001B680C46C3F30223C3F10705042D00D9CB
:100BB0000425191D072901D2002300E0DB1E0126B0
:100BC00006FA05F1491E214099409E40761E1640C6
:100BD0003143F0BC00F056BD0CED00E0064900F0DA
:100BE000070208684FF6FF03184040EA0220034A54
:100BF00010430860704700000CED00E00000FA05AB
:100C00002DE9F0470F46050061D0434E306800F0F3
:100C10000700B84209D2306820F00700384330603E
:100C2000306800F00700B84251D128683B4C81077A
:100C300012D5400703D5606840F4E0606060287812
:100C4000000703D5606840F4605060606068A96880
:100C500020F0F000084360602878C00728D068685A
:100C6000012810D02168022810D0890700292EDA27
:100C7000616821F0030101436160FFF797FB804643
:100C800041F288390DE021688903EFE78901EDE73A
:100C9000FFF78CFBA0EB0801494502D90320BDE812
:100CA000F0876068696800F00C00B0EB810FEFD14D
:100CB000306800F00700B8420BD9306820F0070018
:100CC00038433060306800F00700B84201D001209E
:100CD000E5E72878400705D56068E96820F4E0601A
:100CE000084360602878000706D56068296920F409
:100CF000605040EAC100606000F028F86168084A6E
:100D0000C1F30311515CC8400649086006480068F9
:100D1000FFF706FF0020C2E700200240001002405B
:100D2000841800082000002018000020044805490D
:100D300000684968044AC1F30221515CC840704709
:100D400020000020001002409418000812A185B075
:100D50000FC98DE80F0014A0144A00680490516870
:100D6000134801F00C03042B10D0082B0ED1C1F353
:100D70008343C9031DF803000AD5516804AAC1F3CF
:100D80004041515C0A4A5043B0FBF1F005B0704756
:100D900008494843FAE7000002030405060708096A
:100DA0000A0B0C0D0E0F1010010200000010024083
:100DB00000127A0000093D002DE9F84F040070D0C0
:100DC0002078C04DC00749D06868C0F38100012871
:100DD00007D06868C0F38100022809D16868C003A1
:100DE00006D52868800339D560680028E7D035E04B
:100DF0006068B0F5803F0BD010B1B0F5A02F11D0D6
:100E0000286820F480302860286820F4802002E0E0
:100E1000286840F480302860606890B1FFF7C6FA17
:100E200006460AE0286840F480202860F0E700BF0A
:100E3000FFF7BCFA801B642873D828688003F7D5B5
:100E40000CE0FFF7B3FA064605E000BFFFF7AEFA85
:100E5000801B6428F0D828688003F7D420789A4E45
:100E600080074FF001094FF0000839D5686810F08D
:100E70000C0F07D06868C0F38100022809D16868A8
:100E8000C00306D42868800714D52069012808D13A
:100E900010E02069B0B1C6F80090FFF787FA074666
:100EA00005E00AE1FFF782FAC01B0228C4D82868CF
:100EB0008007F7D52868616920F0F80040EAC10092
:100EC00028600DE0C6F80080FFF770FA074604E0DE
:100ED000FFF76CFAC01B022823D828688007F7D4D4
:100EE000207800072CD57948A169D9B1C0F80090C5
:100EF000FFF75CFA074604E0FFF758FAC01B022828
:100F00000FD8686A8007F7D571484FF4FA51006826
:100F1000B0FBF1F0009000BF0098411E0091FAD2A2
:100F20000EE080E0C0F80080FFF740FA074604E0DA
:100F3000FFF73CFAC01B022875D8686A8007F7D40F
:100F40002078400760D5E8690027C00008D4E86928
:100F500040F08050E861E869012700F0805000907F
:100F60005C480168C90513D40168834641F4807167
:100F70000160FFF71BFA824606E000BFFFF716FA92
:100F8000A0EB0A0064284ED8DBF80000C005F5D5B8
:100F9000E06801280AD008B1052813D0286A20F09B
:100FA00001002862286A20F0040002E0286A40F06C
:100FB00001002862E06841F2883B98B1FFF7F6F93A
:100FC00082460BE0286A40F004002862EEE700BF8A
:100FD000FFF7ECF9A0EB0A0159455AD8286A8007B7
:100FE000F6D50CE0FFF7E2F9824605E0FFF7DEF9FF
:100FF000A0EB0A0159454CD8286A8007F6D41FB1E6
:10100000E86920F08050E861E06988B36968C1F35D
:101010008101022944D00228C6F8608004D0FFF77D
:10102000C5F9044638E034E0FFF7C0F9074604E0AC
:10103000FFF7BCF9C01B02282BD828688001F7D421
:10104000206AB0F5803F05D16868A16820F40030BF
:1010500008436860D4E908010843696821F4741101
:1010600008436860C6F86090FFF7A0F9044606E000
:1010700025E000BFFFF79AF9001B022809D828686D
:101080008001F7D51BE000BFFFF790F9001B022895
:1010900002D90320BDE8F88F28688001F4D40EE05F
:1010A0000128F7D06868226A00F48031914204D1A7
:1010B000616A00F47010884201D00120EAE7002044
:1010C000E8E7000000100240000042428004424273
:1010D000200000200070004010B5401EB0F1807F5D
:1010E00001D3012010BD4FF0E02460610F21601793
:1010F00000F0C8FA0020A06107202061002010BD88
:10110000FEE701684A69D24352050FD46FF480624A
:101110004A61002140F8301F202242738173026926
:1011200042F0040202610173012070470020704701
:101130002DE9F84F0446006889460B9D01689846E2
:10114000174641F4806101602068016841F48071B4
:10115000016000954FF0011B0022594620460A9B72
:1011600000F0DEF84FF4007A40B120680068C00556
:1011700001D5C4F840A00320BDE8F88F216809F02C
:10118000FE0008612B46284920460A9A00F0FCF828
:10119000F0BB20684169806900902A4620460A9980
:1011A00000F070F940B1206C04283AD12068016841
:1011B00041F40071016034E0FEB2B8F1010F09D0D2
:1011C0002168380A08612A4620460A9900F05AF92F
:1011D0000028E8D1206806612A4620460A9900F0D6
:1011E00051F90028DFD12068016841F48071016065
:1011F00000950022594620460A9B00F091F80028ED
:10120000B3D1216809F0FF0040F00100086100E05F
:1012100007E02B46044920460A9A00F0B5F800285A
:10122000AAD00120A8E70000020001002DE9F84340
:10123000044600680D46DDE90897016898461646A1
:1012400041F4807101604B4600224FF001112046AD
:10125000009700F065F848B120680068C00502D525
:101260004FF4007020640320BDE8F883216805F086
:10127000FE0008613B464A461549204600F084F8C6
:1012800088B920684169806900903A4649462046FD
:1012900000F0F8F848B1206C042804D120680168F7
:1012A00041F4007101600120DEE7F5B2B8F1010FF1
:1012B00009D02168300A08613A464946204600F0C4
:1012C000E1F80028E7D1206805610020CCE70000A4
:1012D0000200010070B516460D4604460DE020469A
:1012E000FFF70FFF08B1012070BD681C05D0FFF7A4
:1012F0005DF8801BA84207D835B120684069C0431B
:101300004007ECD4002070BD002044F8300F2021AD
:101310006173A073216941F0200121612073E2E72C
:101320002DE9F0471E4690460D460446C1F3074797
:10133000DDF8209008E0701C06D0FFF737F8A0EB2E
:101340000900B0420FD876B12068012F18D080690B
:1013500025EA00000004000C14D000214145EAD029
:101360000020BDE8F087002044F8300F2021617391
:10137000A073216941F02001216120730120F0E771
:101380004069E5E70121E9E72DE9F0479A469146F2
:101390000E46044600254FF02008C1F3074725E01C
:1013A00020684069C043400514D42068016841F4B6
:1013B0000071016021686FF480604861256384F8E2
:1013C0003D8084F83E50206C40F00400206484F896
:1013D0003C501FE0B9F1FF3F08D0FEF7E7FFA0EB5C
:1013E0000A0149450CD8B9F1000F09D02068012F36
:1013F00013D0806926EA00000004000C0BD0CFE770
:1014000044F8305F84F80D80A573206940F0200017
:10141000206125730120BDE8F0874069EAE72DE9E6
:10142000F041002590460E460446202717E040690B
:10143000C043C0060CD454F8301B6FF01000486154
:1014400044F810596777A577206A2062257717E05E
:10145000FEF7ACFFA0EB0800B04208D83EB1206810
:101460004169C9434906E2D40020BDE8F08144F84F
:10147000305F6773A573206940F0200020612573F9
:101480000120F2E770B516460D4604460DE02046F1
:10149000FFF737FE08B1012070BD681C05D0FEF7CC
:1014A00085FF801BA84207D835B120684069C0433A
:1014B0000006ECD4002070BD002044F8300F20213D
:1014C0006173A073216941F0200121612073E2E77B
:1014D00030B585B0002000900190029003902D4817
:1014E000816941F010018161816901F0100104916D
:1014F000816941F020018161816901F0200104913D
:10150000816941F004018161816901F00401049164
:10151000816941F00801816180691F4D00F0080078
:101520000490002204212846FEF73AFF4FF4604061
:101530000324CDE9000469461848FEF741FE0094F3
:10154000694617480194FEF73BFE49F6FF70CDE966
:10155000000469461348FEF733FE4FF2FB30CDE935
:10156000000469462846FEF72BFE04200090012067
:101570000221CDE90101039169462846FEF720FECC
:101580000948416841F0E06141F40041416005B023
:1015900030BD000000100240000C0140001001406E
:1015A0000014014000080140000001400D4810B542
:1015B0000B4901600C49416000214FF48042816079
:1015C000C0E9031241618161C1610162FEF7F4FE6D
:1015D000002803D0BDE81040FEF7DEBD10BD0000BE
:1015E0000058004040000020A0860100094810B5C6
:1015F000074901600421416040F6FF718160FFF7F7
:1016000045FA002803D0BDE81040FEF7C5BD10BD67
:101610000030004094000020FEE7FEE7704770476E
:10162000FFF764BA30B58FB028216846FEF795FD04
:1016300014210AA8FEF791FD0A200090012002253E
:10164000CDE906051021CDE9040100244FF4E01096
:10165000CDE908406846FFF7AFFB08B172B6FEE778
:101660000F200A90CDE90B540D9401210AA80E9485
:10167000FFF7C6FA002801D072B6FEE70FB030BD02
:101680007047FEE70907090E002804DB00F1E0209F
:1016900080F80014704700F00F0000F1E02080F89F
:1016A000141D704702E008C8121F08C1002AFAD1B1
:1016B00070477047002001E001C1121F002AFBD1D2
:1016C0007047000030B589B020220AA16846FEF7B5
:1016D0002BFD00244FF40045A0B26423202269466C
:1016E00000F04EF8002803D02034AC42F4D301209F
:1016F00009B030BDFFFFFFFFFFFFFFFFFFFFFFFF50
:10170000FFFFFFFFFFFFFFFFFFFFFFFFFFFFFFFFE9
:10171000FFFFFFFF10B564230222A0210348FEF75C
:101720000FFF08B1002010BD012010BD40000020B7
:101730002DE9FE4380461D4616460F460D48FFF72D
:10174000CEF90D4C207801280ED001202070B0B2C7
:101750000097CDE9010510234246A0210748FEF776
:10176000A5FF0021217010B10020BDE8FE830120FB
:10177000FBE7000094000020000000204000002053
:101780002DE9FF4F064621480F4683B001781546E4
:1017900001291FD0012180460170FEF707FE834614
:1017A0004FF000094FF0640A1948FFF798F906F066
:1017B0001F00C0F12004AC4200D9ACB2CDE90074E6
:1017C00010233246A0211348CDF808A0FFF796F861
:1017D00020B113E0002007B0BDE8F08F0A20FEF72B
:1017E000DDFC06EB04002D1B274486B209D0FEF772
:1017F000DDFDA0EB0B0106988142D5D388F800905F
:10180000E8E788F800900120E5E7000000000020EC
:101810009400002040000020FFF770F9FFF702FF5E
:10182000FFF756FEFFF7E2FEFFF7C0FE1248FFF794
:1018300056F9FFF76FFFD0B1FFF744FF0F4CA070D0
:101840000A20FEF7ABFC64230F22E11C0020FFF707
:1018500097FF20700A20FEF7A1FC64230F2208499D
:101860000020FFF765FF60700A20FEF797FC024832
:10187000FFF735F9FBE7000094000020010000208D
:10188000240000200000000000000000010203040A
:10189000060708090000000001020304BC18000844
:1018A0000000002024000000A4160008E018000832
:1018B000240000207C080000B4160008000000008E
:1018C00048656C6C6F20576F726C64203132330046
:1018D0000100000010000000000000000024F400DF
:04000005080000ED02
:00000001FF
